{
  "contractName": "SocialNetwork",
  "abi": [
    {
      "inputs": [],
      "payable": false,
      "stateMutability": "nonpayable",
      "type": "constructor"
    },
    {
      "anonymous": false,
      "inputs": [
        {
          "indexed": false,
          "internalType": "uint256",
          "name": "id",
          "type": "uint256"
        },
        {
          "indexed": false,
          "internalType": "string",
          "name": "heading",
          "type": "string"
        },
        {
          "indexed": false,
          "internalType": "string",
          "name": "content",
          "type": "string"
        },
        {
          "indexed": false,
          "internalType": "uint256",
          "name": "tipAmount",
          "type": "uint256"
        },
        {
          "indexed": false,
          "internalType": "address payable",
          "name": "author",
          "type": "address"
        }
      ],
      "name": "PostCreated",
      "type": "event"
    },
    {
      "anonymous": false,
      "inputs": [
        {
          "indexed": false,
          "internalType": "uint256",
          "name": "id",
          "type": "uint256"
        },
        {
          "indexed": false,
          "internalType": "string",
          "name": "content",
          "type": "string"
        },
        {
          "indexed": false,
          "internalType": "uint256",
          "name": "tipAmount",
          "type": "uint256"
        },
        {
          "indexed": false,
          "internalType": "address payable",
          "name": "author",
          "type": "address"
        }
      ],
      "name": "PostTipped",
      "type": "event"
    },
    {
      "constant": true,
      "inputs": [],
      "name": "name",
      "outputs": [
        {
          "internalType": "string",
          "name": "",
          "type": "string"
        }
      ],
      "payable": false,
      "stateMutability": "view",
      "type": "function"
    },
    {
      "constant": true,
      "inputs": [],
      "name": "postCount",
      "outputs": [
        {
          "internalType": "uint256",
          "name": "",
          "type": "uint256"
        }
      ],
      "payable": false,
      "stateMutability": "view",
      "type": "function"
    },
    {
      "constant": true,
      "inputs": [
        {
          "internalType": "uint256",
          "name": "",
          "type": "uint256"
        }
      ],
      "name": "posts",
      "outputs": [
        {
          "internalType": "uint256",
          "name": "id",
          "type": "uint256"
        },
        {
          "internalType": "string",
          "name": "heading",
          "type": "string"
        },
        {
          "internalType": "string",
          "name": "content",
          "type": "string"
        },
        {
          "internalType": "uint256",
          "name": "tipAmount",
          "type": "uint256"
        },
        {
          "internalType": "address payable",
          "name": "author",
          "type": "address"
        }
      ],
      "payable": false,
      "stateMutability": "view",
      "type": "function"
    },
    {
      "constant": true,
      "inputs": [
        {
          "internalType": "address",
          "name": "",
          "type": "address"
        },
        {
          "internalType": "uint256",
          "name": "",
          "type": "uint256"
        }
      ],
      "name": "user_post",
      "outputs": [
        {
          "internalType": "uint256",
          "name": "id",
          "type": "uint256"
        },
        {
          "internalType": "string",
          "name": "heading",
          "type": "string"
        },
        {
          "internalType": "string",
          "name": "content",
          "type": "string"
        },
        {
          "internalType": "uint256",
          "name": "tipAmount",
          "type": "uint256"
        },
        {
          "internalType": "address payable",
          "name": "author",
          "type": "address"
        }
      ],
      "payable": false,
      "stateMutability": "view",
      "type": "function"
    },
    {
      "constant": true,
      "inputs": [
        {
          "internalType": "address",
          "name": "",
          "type": "address"
        }
      ],
      "name": "user_post_count",
      "outputs": [
        {
          "internalType": "uint256",
          "name": "",
          "type": "uint256"
        }
      ],
      "payable": false,
      "stateMutability": "view",
      "type": "function"
    },
    {
      "constant": false,
      "inputs": [
        {
          "internalType": "string",
          "name": "_heading",
          "type": "string"
        },
        {
          "internalType": "string",
          "name": "_content",
          "type": "string"
        }
      ],
      "name": "createPost",
      "outputs": [],
      "payable": false,
      "stateMutability": "nonpayable",
      "type": "function"
    },
    {
      "constant": false,
      "inputs": [
        {
          "internalType": "uint256",
          "name": "_id",
          "type": "uint256"
        }
      ],
      "name": "tipPost",
      "outputs": [],
      "payable": true,
      "stateMutability": "payable",
      "type": "function"
    }
  ],
  "bytecode": "0x608060405260006001553480156200001657600080fd5b506040518060400160405280600d81526020017f4d65726964696f20436861696e0000000000000000000000000000000000000081525060009080519060200190620000649291906200006b565b506200011a565b828054600181600116156101000203166002900490600052602060002090601f016020900481019282601f10620000ae57805160ff1916838001178555620000df565b82800160010185558215620000df579182015b82811115620000de578251825591602001919060010190620000c1565b5b509050620000ee9190620000f2565b5090565b6200011791905b8082111562000113576000816000905550600101620000f9565b5090565b90565b6112fb806200012a6000396000f3fe6080604052600436106100705760003560e01c8063392338f51161004e578063392338f51461029157806374d3c1f8146103f05780638dae3bb51461041e578063dd7cf75e1461059f57610070565b806306fdde03146100755780630b1e7f831461010557806317906c2e14610266575b600080fd5b34801561008157600080fd5b5061008a610604565b6040518080602001828103825283818151815260200191508051906020019080838360005b838110156100ca5780820151818401526020810190506100af565b50505050905090810190601f1680156100f75780820380516001836020036101000a031916815260200191505b509250505060405180910390f35b34801561011157600080fd5b5061013e6004803603602081101561012857600080fd5b81019080803590602001909291905050506106a2565b6040518086815260200180602001806020018581526020018473ffffffffffffffffffffffffffffffffffffffff1673ffffffffffffffffffffffffffffffffffffffff168152602001838103835287818151815260200191508051906020019080838360005b838110156101c05780820151818401526020810190506101a5565b50505050905090810190601f1680156101ed5780820380516001836020036101000a031916815260200191505b50838103825286818151815260200191508051906020019080838360005b8381101561022657808201518184015260208101905061020b565b50505050905090810190601f1680156102535780820380516001836020036101000a031916815260200191505b5097505050505050505060405180910390f35b34801561027257600080fd5b5061027b610828565b6040518082815260200191505060405180910390f35b34801561029d57600080fd5b506103ee600480360360408110156102b457600080fd5b81019080803590602001906401000000008111156102d157600080fd5b8201836020820111156102e357600080fd5b8035906020019184600183028401116401000000008311171561030557600080fd5b91908080601f016020809104026020016040519081016040528093929190818152602001838380828437600081840152601f19601f8201169050808301925050505050505091929192908035906020019064010000000081111561036857600080fd5b82018360208201111561037a57600080fd5b8035906020019184600183028401116401000000008311171561039c57600080fd5b91908080601f016020809104026020016040519081016040528093929190818152602001838380828437600081840152601f19601f82011690508083019250505050505050919291929050505061082e565b005b61041c6004803603602081101561040657600080fd5b8101908080359060200190929190505050610c45565b005b34801561042a57600080fd5b506104776004803603604081101561044157600080fd5b81019080803573ffffffffffffffffffffffffffffffffffffffff16906020019092919080359060200190929190505050611031565b6040518086815260200180602001806020018581526020018473ffffffffffffffffffffffffffffffffffffffff1673ffffffffffffffffffffffffffffffffffffffff168152602001838103835287818151815260200191508051906020019080838360005b838110156104f95780820151818401526020810190506104de565b50505050905090810190601f1680156105265780820380516001836020036101000a031916815260200191505b50838103825286818151815260200191508051906020019080838360005b8381101561055f578082015181840152602081019050610544565b50505050905090810190601f16801561058c5780820380516001836020036101000a031916815260200191505b5097505050505050505060405180910390f35b3480156105ab57600080fd5b506105ee600480360360208110156105c257600080fd5b81019080803573ffffffffffffffffffffffffffffffffffffffff1690602001909291905050506111c4565b6040518082815260200191505060405180910390f35b60008054600181600116156101000203166002900480601f01602080910402602001604051908101604052809291908181526020018280546001816001161561010002031660029004801561069a5780601f1061066f5761010080835404028352916020019161069a565b820191906000526020600020905b81548152906001019060200180831161067d57829003601f168201915b505050505081565b6002602052806000526040600020600091509050806000015490806001018054600181600116156101000203166002900480601f0160208091040260200160405190810160405280929190818152602001828054600181600116156101000203166002900480156107545780601f1061072957610100808354040283529160200191610754565b820191906000526020600020905b81548152906001019060200180831161073757829003601f168201915b505050505090806002018054600181600116156101000203166002900480601f0160208091040260200160405190810160405280929190818152602001828054600181600116156101000203166002900480156107f25780601f106107c7576101008083540402835291602001916107f2565b820191906000526020600020905b8154815290600101906020018083116107d557829003601f168201915b5050505050908060030154908060040160009054906101000a900473ffffffffffffffffffffffffffffffffffffffff16905085565b60015481565b600081511161083c57600080fd5b6001600081548092919060010191905055506040518060a001604052806001548152602001838152602001828152602001600081526020013373ffffffffffffffffffffffffffffffffffffffff168152506002600060015481526020019081526020016000206000820151816000015560208201518160010190805190602001906108c99291906111dc565b5060408201518160020190805190602001906108e69291906111dc565b506060820151816003015560808201518160040160006101000a81548173ffffffffffffffffffffffffffffffffffffffff021916908373ffffffffffffffffffffffffffffffffffffffff160217905550905050600460003373ffffffffffffffffffffffffffffffffffffffff1673ffffffffffffffffffffffffffffffffffffffff168152602001908152602001600020600081548092919060010191905055506040518060a001604052806001548152602001838152602001828152602001600081526020013373ffffffffffffffffffffffffffffffffffffffff16815250600360003373ffffffffffffffffffffffffffffffffffffffff1673ffffffffffffffffffffffffffffffffffffffff1681526020019081526020016000206000600460003373ffffffffffffffffffffffffffffffffffffffff1673ffffffffffffffffffffffffffffffffffffffff168152602001908152602001600020548152602001908152602001600020600082015181600001556020820151816001019080519060200190610a7f9291906111dc565b506040820151816002019080519060200190610a9c9291906111dc565b506060820151816003015560808201518160040160006101000a81548173ffffffffffffffffffffffffffffffffffffffff021916908373ffffffffffffffffffffffffffffffffffffffff1602179055509050507f0e2769bd597cd7048e25b64a846e1254d4cb84b13c4aba4ad4a891baf7a399c660015483836000336040518086815260200180602001806020018581526020018473ffffffffffffffffffffffffffffffffffffffff1673ffffffffffffffffffffffffffffffffffffffff168152602001838103835287818151815260200191508051906020019080838360005b83811015610b9c578082015181840152602081019050610b81565b50505050905090810190601f168015610bc95780820380516001836020036101000a031916815260200191505b50838103825286818151815260200191508051906020019080838360005b83811015610c02578082015181840152602081019050610be7565b50505050905090810190601f168015610c2f5780820380516001836020036101000a031916815260200191505b5097505050505050505060405180910390a15050565b600081118015610c5757506001548111155b610c6057600080fd5b610c6861125c565b600260008381526020019081526020016000206040518060a001604052908160008201548152602001600182018054600181600116156101000203166002900480601f016020809104026020016040519081016040528092919081815260200182805460018160011615610100020316600290048015610d295780601f10610cfe57610100808354040283529160200191610d29565b820191906000526020600020905b815481529060010190602001808311610d0c57829003601f168201915b50505050508152602001600282018054600181600116156101000203166002900480601f016020809104026020016040519081016040528092919081815260200182805460018160011615610100020316600290048015610dcb5780601f10610da057610100808354040283529160200191610dcb565b820191906000526020600020905b815481529060010190602001808311610dae57829003601f168201915b50505050508152602001600382015481526020016004820160009054906101000a900473ffffffffffffffffffffffffffffffffffffffff1673ffffffffffffffffffffffffffffffffffffffff1673ffffffffffffffffffffffffffffffffffffffff168152505090506000816080015190508073ffffffffffffffffffffffffffffffffffffffff166108fc349081150290604051600060405180830381858888f19350505050158015610e85573d6000803e3d6000fd5b50348260600151018260600181815250508160026000858152602001908152602001600020600082015181600001556020820151816001019080519060200190610ed09291906111dc565b506040820151816002019080519060200190610eed9291906111dc565b506060820151816003015560808201518160040160006101000a81548173ffffffffffffffffffffffffffffffffffffffff021916908373ffffffffffffffffffffffffffffffffffffffff1602179055509050507f20988fe475351e75813672abada1dddb7ac67cbbeb81e61e1160b8329d8cdf1c600154836040015184606001518460405180858152602001806020018481526020018373ffffffffffffffffffffffffffffffffffffffff1673ffffffffffffffffffffffffffffffffffffffff168152602001828103825285818151815260200191508051906020019080838360005b83811015610fef578082015181840152602081019050610fd4565b50505050905090810190601f16801561101c5780820380516001836020036101000a031916815260200191505b509550505050505060405180910390a1505050565b600360205281600052604060002060205280600052604060002060009150915050806000015490806001018054600181600116156101000203166002900480601f0160208091040260200160405190810160405280929190818152602001828054600181600116156101000203166002900480156110f05780601f106110c5576101008083540402835291602001916110f0565b820191906000526020600020905b8154815290600101906020018083116110d357829003601f168201915b505050505090806002018054600181600116156101000203166002900480601f01602080910402602001604051908101604052809291908181526020018280546001816001161561010002031660029004801561118e5780601f106111635761010080835404028352916020019161118e565b820191906000526020600020905b81548152906001019060200180831161117157829003601f168201915b5050505050908060030154908060040160009054906101000a900473ffffffffffffffffffffffffffffffffffffffff16905085565b60046020528060005260406000206000915090505481565b828054600181600116156101000203166002900490600052602060002090601f016020900481019282601f1061121d57805160ff191683800117855561124b565b8280016001018555821561124b579182015b8281111561124a57825182559160200191906001019061122f565b5b50905061125891906112a1565b5090565b6040518060a0016040528060008152602001606081526020016060815260200160008152602001600073ffffffffffffffffffffffffffffffffffffffff1681525090565b6112c391905b808211156112bf5760008160009055506001016112a7565b5090565b9056fea265627a7a72315820b3421257860990f31d1ade059af2f9100543419088ea11b422f3097f8ffbe62c64736f6c63430005100032",
  "source": "pragma solidity ^0.5.0;\n\ncontract SocialNetwork {\n    string public name;\n    uint public postCount = 0;\n    mapping(uint => Post) public posts;\n    mapping (address => mapping (uint => Post) ) public user_post;\n    mapping(address => uint) public user_post_count;\n\n    struct Post {\n        uint id;\n        string heading;\n        string content;\n        uint tipAmount;\n        address payable author;\n    }\n\n    event PostCreated(\n        uint id,\n        string heading,\n        string content,\n        uint tipAmount,\n        address payable author\n    );\n\n    event PostTipped(\n        uint id,\n        string content,\n        uint tipAmount,\n        address payable author\n    );\n\n    constructor() public {\n        name = \"Meridio Chain\";\n    }\n\n    function createPost(string memory _heading, string memory _content) public {\n        // Require valid content\n        require(bytes(_content).length > 0);\n        // Increment the post count\n        postCount ++;\n        // Create the post\n        posts[postCount] = Post(postCount, _heading, _content,  0, msg.sender);\n        user_post_count[msg.sender] ++;\n        user_post[msg.sender][user_post_count[msg.sender]] = Post(postCount, _heading, _content,  0, msg.sender);\n        // Trigger event\n        emit PostCreated(postCount, _heading, _content,  0, msg.sender);\n    }\n\n    function tipPost(uint _id) public payable {\n        // Make sure the id is valid\n        require(_id > 0 && _id <= postCount);\n        // Fetch the post\n        Post memory _post = posts[_id];\n        // Fetch the author\n        address payable _author = _post.author;\n        // Pay the author by sending them Ether\n        address(_author).transfer(msg.value);\n        // Incremet the tip amount\n        _post.tipAmount = _post.tipAmount + msg.value;\n        // Update the post\n        posts[_id] = _post;\n        // Trigger an event\n        emit PostTipped(postCount, _post.content, _post.tipAmount, _author);\n    }\n\n    \n}\n",
  "sourcePath": "/media/aavishkar/Data/Meridio-Chain/src/contracts/SocialNetwork.sol",
  "compiler": {
    "name": "solc",
    "version": "0.5.16+commit.9c3226ce.Emscripten.clang"
  },
  "schemaVersion": "3.2.4",
  "updatedAt": "2020-09-05T15:56:22.974Z",
  "networkType": "ethereum",
  "devdoc": {
    "methods": {}
  },
  "userdoc": {
    "methods": {}
  }
}